S00E000053414D4537302E7372656389
S214400000B82D4020010C4000B10C4000B10C40001F
S214400010B10C4000B10C4000B10C400000000000A4
S214400020000000000000000000000000B10C40008E
S214400030B10C400000000000B10C4000B10C400084
S214400040B10C4000B10C4000B10C4000B10C400077
S214400050B10C4000B10C4000B10C4000B10C400067
S214400060B10C400000000000B9074000D107400036
S214400070E9074000B10C4000B10C4000B10C400014
S2144000800108400019084000B10C4000B10C400087
S214400090B10C4000B10C4000B10C4000B10C400027
S2144000A0B10C4000B10C4000B10C4000B10C400017
S2144000B0B10C4000B10C4000B10C4000B10C400007
S2144000C0B10C4000B10C4000B10C4000B10C4000F7
S2144000D000000000B10C400000000000B10C4000E1
S2144000E0B10C4000B10C4000B10C4000B10C4000D7
S2144000F0B10C4000B10C4000B10C4000B10C4000C7
S214400100B10C4000B10C4000B10C4000B10C4000B6
S214400110B10C40000000000000000000000000009D
S214400120B10C4000B10C4000B10C4000B10C400096
S214400130B10C400000000000B10C4000B10C400083
S21440014010B5054C237833B9044B13B10448AFF3CC
S21440015000800123237010BD040D402000000000E5
S214400160D42040000C4B43B10C480D4910B5AFF3BA
S21440017000800C48036823B910BD0A48036833B9A9
S2144001807047094B002BF7D0BDE810401847064B88
S214400190002BF5D0184700BF00000000D4204000D8
S2144001A0080D4020D42040000000000080B582B0FA
S2144001B000AF78607B68072B31D801A252F823F055
S2144001C01D024000E1014000E9014000F10140000D
S2144001D0F9014000010240000902400013024000BD
S2144001E00020114B98471AE001200F4B984716E025
S2144001F000200E4B984712E010200C4B98470EE01C
S21440020020200A4B98470AE03E210020084B98479A
S21440021005E03E210120064B984700E000BF00BFA6
S2144002200837BD4680BD00BF310940009D094000EB
S2144002300D0A400080B582B000AF78607B68072B1F
S21440024026D801A252F823F0690240006D02400011
S2144002506D0240007F0240007F0240007F02400067
S2144002607F0240007F024000012312E00B4B98477C
S2144002700346002B14BF01230023DBB209E0084BE2
S21440028098470346002B14BF01230023DBB200E04F
S214400290002318460837BD4680BD00BF69094000A8
S2144002A0850A400080B483B000AF78607B68072B37
S2144002B025D801A252F823F0D9024000DF024000C0
S2144002C0E5024000EB024000EF024000F30240002F
S2144002D0F7024000FB0240004FF4FA4310E04FF4B0
S2144002E000430DE04FF400430AE0084B08E0084B9B
S2144002F006E0084B04E0074B02E0064B00E0002314
S21440030018460C37BD465DF8047B704700093D0033
S21440031000127A00001BB70080B582B000AF0346DB
S214400320FB7100BFFB791846054B9847034683F0A0
S2144003300103DBB2002BF5D100BF0837BD4680BDB8
S2144003403502400080B586B000AFF8607A603B600A
S2144003500B46FB727B68002B07D13B68002B04D111
S214400360FB684FF470021A6019E0FB7A18460E4B91
S214400370984702467B68B2FBF3F37B617B693A6839
S21440038002FB03F37B613B68013B1A04074B1340B7
S2144003907A68D2B2134343F47C52FB681A6000BFBB
S2144003A01837BD4680BD00BFA50240000000FF07CD
S2144003B080B582B000AF786039603B68002B08D1CA
S2144003C0094B9847094A7B681B6843F00053936281
S2144003D005E0064A7B681B6843F48033D36100BF60
S2144003E00837BD4680BD00BFA10A400000060E404B
S2144003F080B582B000AF78607B68002B03D1054B98
S2144004009847034602E0044B984703461846083789
S214400410BD4680BDBD0A4000D90A400080B582B0C6
S21440042000AF0346FB71FB79033B042B08D8FB79EE
S2144004301846064B9847FB791846054B984700E008
S21440044000BF00BF0837BD4680BD00BFAD014000BD
S2144004501903400080B582B000AF786000BF78686E
S214400460044B98470346002BF9D00023184608371C
S214400470BD4680BDF103400080B500AF0620054B69
S2144004809847024613469B0013449A001344184666
S21440049080BD00BFA502400080B500AF024B984724
S2144004A00346184680BD00BF7904400090B583B02F
S2144004B000AF1348134B98470620134B9847381DF8
S2144004C0192301220621114CA0473B1D0021184646
S2144004D00F4B984700200F4B984702200E4B9847EB
S2144004E000200E4B98470E4B98470E4B98470346B6
S2144004F01846044B984700BF0C37BD4690BD00BF1A
S21440050000A3E111210E40001D04400045034000B9
S214400510B10340005504400031084000AD0840009B
S214400520B90C40009904400080B485B000AFF86034
S214400530B9607A607B68002B03D0FB68BA685A665D
S21440054002E0FB68BA681A6600BF1437BD465DF81D
S214400550047B704780B483B000AF786039607B68B6
S2144005603A681A6300BF0C37BD465DF8047B704797
S21440057080B483B000AF786039607B683A685A636D
S21440058000BF0C37BD465DF8047B704780B487B02B
S21440059000AFF860B9607A60BB68B3F1405F03D0E3
S2144005A0BB68B3F1605F03D1FB689B6B7B6102E085
S2144005B0FB68DB6B7B617A697B681340002B01D15B
S2144005C0002300E0012318461C37BD465DF8047B37
S2144005D07047000080B584B000AFF860B9607A60BC
S2144005E0B968F868194B98477B6803F001031A46C8
S2144005F0B968F868164B98477B6803F00A03002BE7
S21440060003D0FB68BA681A6202E0FB68BA685A62AE
S2144006107B6803F00203002B04D0FB68BA68C3F87B
S214400620802008E07B6803F00803002B03D0FB68BB
S214400630BA68C3F88420FB68BA685A61FB68BA682F
S2144006401A6000BF1037BD4680BD00BFB9064000E7
S2144006502905400080B584B000AFF860B9607A6084
S2144006603B60B968F868124B9847BA69B968F86849
S214400670104B98473B68002B03D0FB68BA681A6556
S21440068002E0FB68BA685A657B68002B03D0FB68BB
S214400690BA681A6302E0FB68BA685A63FB68BA68CD
S2144006A01A61FB68BA681A6000BF1037BD4680BD45
S2144006B0B90640002905400080B483B000AF78609A
S2144006C039607B683A685A6400BF0C37BD465DF8AF
S2144006D0047B704780B483B000AF78607B68DB6C87
S2144006E018460C37BD465DF8047B704780B483B02F
S2144006F000AF78607B689B6C18460C37BD465DF84B
S214400700047B704780B584B000AF78603960786805
S214400710264B9847F8607868254B98470246FB6812
S2144007201340FB60FB68002B3CD00023BB6034E0EA
S214400730204ABB681B0113441A683B689A4226D17C
S2144007401C4ABB681B01134404331A68FB681340F9
S214400750002B1CD0174ABB681B0113440C331B6884
S2144007601449BA6812010A4410681249BA6812015C
S2144007700A4404321268114698470E4ABB681B0169
S214400780134404331B68DB43FA681340FB60BB68C2
S2144007900133BB60BB68062B03D8FB68002BC7D170
S2144007A000E000BF00BF1037BD4680BDD506400004
S2144007B0ED064000200D402080B500AF0A210248DB
S2144007C0024B984700BF80BD000E0E400507400014
S2144007D080B500AF0B210248024B984700BF80BD52
S2144007E000100E400507400080B500AF0C210248BF
S2144007F0024B984700BF80BD00120E4005074000E0
S21440080080B500AF10210248024B984700BF80BD1C
S21440081000140E400507400080B500AF1121024885
S214400820024B984700BF80BD00160E4005074000AB
S21440083080B483B000AF78607B68013B032B1AD846
S21440084001A252F823F000BF590840005F0840005C
S214400850670840006F08400000237B600EE04FF4BE
S21440086080737B600AE04FF440737B6006E04FF491
S21440087000737B6002E000237B6000BF0A490A4B9E
S2144008801B6B23F440727B6813430B6300BF064B1D
S2144008909B6E03F00803002BF9D000BF0C37BD4613
S2144008A05DF8047B704700BF00060E4080B485B0FC
S2144008B000AF78601D491D4B1B6B23F070027B68B0
S2144008C013430B634FF48053FB6007E0FB68002B39
S2144008D001D1012323E0FB68013BFB60134B9B6E79
S2144008E003F00803002BF1D0104A104B1B6B23F08B
S2144008F0030343F0020313634FF48053FB6007E0A7
S214400900FB68002B01D1012309E0FB68013BFB603B
S214400910064B9B6E03F00803002BF1D000231846CD
S2144009201437BD465DF8047B704700BF00060E4096
S21440093080B483B000AF78607B68012B05D107494F
S214400940064B9A68064B13438B60044B054A1A6065
S21440095000BF0C37BD465DF8047B704710180E404C
S214400960000010A5080000A580B400AF094B5B69E5
S21440097003F08003002B07D0074B9B6E03F08003E9
S214400980002B01D0012300E000231846BD465DF849
S214400990047B704710180E4000060E4080B483B0AB
S2144009A000AF78601549154B1A6A154B13430B6216
S2144009B000BF124B9B6E03F40033002BF9D00F4957
S2144009C00E4B1A6A0F4B13407A68134343F45C137A
S2144009D00B6200BF094B9B6E03F40033002BF9D02B
S2144009E00649064B1A6A084B134043F45C130B62E5
S2144009F000BF0C37BD465DF8047B704700060E40CE
S214400A00080037008FFFC8FFFFFFC8FE80B483B0E2
S214400A1000AF786039607B68002B08D01349134BD1
S214400A201B6A134A1A40134B13430B6218E00F49D4
S214400A300E4B1A6A104B13403A68120292B21A438F
S214400A400E4B13430B6200BF084B9B6E03F0010333
S214400A50002BF9D00549054B1A6A094B13430B6224
S214400A6000BF0C37BD465DF8047B704700060E405D
S214400A70FCFFC8FE02003701FCFFC8FF010037003C
S214400A800000370180B400AF044B9B6E03F4803304
S214400A901846BD465DF8047B704700BF00060E4012
S214400AA080B400AF044B4FF000529A6200BFBD4680
S214400AB05DF8047B704700BF00060E4080B400AF70
S214400AC0044B9B6E03F002031846BD465DF8047B5C
S214400AD0704700BF00060E4080B400AF044B9B6ECC
S214400AE003F040031846BD465DF8047B704700BFE0
S214400AF000060E4080B483B000AF78607B683F2B22
S214400B0001D901232FE07B681F2B13D8194B9A6914
S214400B1001217B6801FA03F31A4001217B6801FA40
S214400B2003F39A421ED0134A01217B6801FA03F36D
S214400B30136117E07B68203B7B600E4BD3F808219F
S214400B4001217B6801FA03F31A4001217B6801FA10
S214400B5003F39A4206D0074A01217B6801FA03F361
S214400B60C2F80031002318460C37BD465DF8047BBA
S214400B70704700BF00060E4080B483B000AFEFF36E
S214400B8010837B607B68002B0CBF01230023DBB205
S214400B903B6072B6BFF35F8F044B00221A703B680F
S214400BA018460C37BD465DF8047B70470A00402067
S214400BB080B483B000AF78607B68002B14BF0123FD
S214400BC00023DBB218460C37BD465DF8047B704701
S214400BD080B582B000AF78607868074B9847034688
S214400BE0002B05D0054B01221A70BFF35F8F62B60B
S214400BF000BF0837BD4680BDB10B40000A0040200C
S214400C0080B584B000AF1E4BFB601E4BBB60FA68DD
S214400C10BB689A420CD007E0BB681A1DBA60FA68F7
S214400C20111DF96012681A60BB68174A9342F3D3E5
S214400C30164BBB6004E0BB681A1DBA6000221A60FF
S214400C40BB68134A9342F6D3124BFB60124AFB68CA
S214400C5023F07F039360114B98477860104A104BFF
S214400C601B6843F470031360BFF34F8FBFF36F8F5F
S214400C7078680C4B98470C4B98470C4B9847FEE7C8
S214400C80D420400000004020040D4020040D4020A9
S214400C90B40D40200000400000ED00E0790B40001D
S214400CA088ED00E0D10B4000351F40002110400089
S214400CB080B400AFFEE7000080B400AF524B1B6B21
S214400CC003F00303012B14D0012B02D3022B38D0A0
S214400CD07AE04E4B5B6903F08003002B04D04C4B0C
S214400CE04FF400421A606FE0494B4FF4FA421A60E4
S214400CF06AE0454B1B6A03F08073002B03D0444BDD
S214400D00444A1A6060E0424B434A1A603E4B1B6AB4
S214400D1003F07003102B04D0202B08D0002B0ED0ED
S214400D200EE03B4B1B685B00394A136008E0384BCB
S214400D301A6813465B001344354A136000E000BF50
S214400D4042E0314B1B6A03F08073002B03D0304BDC
S214400D50304A1A601CE02E4B2F4A1A602A4B1B6AF8
S214400D6003F07003102B04D0202B08D0002B0ED09D
S214400D700EE0274B1B685B00254A136008E0244BB7
S214400D801A6813465B001344214A136000E000BF14
S214400D901D4B1B6B03F00303022B14D11A4B9B6AAB
S214400DA01B0CC3F30A030133194A126802FB03F310
S214400DB0174A1360144B9B6ADBB2154A1268B2FBA3
S214400DC0F3F3134A136000BF0F4B1B6B03F0700323
S214400DD0702B08D10E4B1B68104AA2FB03235B08FE
S214400DE00B4A13600AE0084B1B6B1B0903F0070312
S214400DF0074A126822FA03F3054A136000BFBD464D
S214400E005DF8047B704700BF00060E4010180E4089
S214400E100C004020001BB70000093D00ABAAAAAA60
S214400E2080B483B000AF78607B68194A934204D898
S214400E30184B4FF080621A6023E07B68164A934254
S214400E4003D8144B154A1A601BE07B68144A934239
S214400E5003D8104B134A1A6013E07B68124A934239
S214400E6003D80C4B114A1A600BE07B68104A934239
S214400E7004D8084B4FF004221A6002E0054B0D4A96
S214400E801A6000BF0C37BD465DF8047B704700BF54
S214400E90FF2C3101000C0E40FF5962020001000495
S214400EA0FF86930300020004FFB3C404000300045B
S214400EB0FFE0F5050005000480B483B000AF78601D
S214400EC07B68072B25D801A252F823F0ED0E400090
S214400ED0F30E4000F90E4000FF0E4000030F4000A6
S214400EE0070F40000B0F40000F0F40004FF4FA432F
S214400EF010E04FF400430DE04FF400430AE0084B87
S214400F0008E0084B06E0084B04E0074B02E0064BBF
S214400F1000E0002318460C37BD465DF8047B70475A
S214400F2000093D0000127A00001BB70080B500AFF4
S214400F300620054B9847024613469B0013449A00EA
S214400F401344184680BD00BFB90E400080B500AFC0
S214400F50024B98470346184680BD00BF2D0F400001
S214400F6090B583B002AF244B9847244B4FF40042D1
S214400F705A600C20224B98470B20214B9847102054
S214400F801F4B984700230093002300224FF4003164
S214400F901C481D4CA047002300930023002202213A
S214400FA01A48194CA04700230093002300224FF410
S214400FB000111748144CA0470C20114B98470A20A4
S214400FC00F4B984700221E210E48124B984700228E
S214400FD0042111480F4B984701224FF080410948A1
S214400FE00E4B9847012210210B480C4B984700BFE8
S214400FF00437BD4690BD00BFAD04400050180E40BB
S214401000F50A400000120E405506400000100E4003
S21440101000140E40D5054000000E0E402905400045
S2144010202DE9F04F93B000AF954B984700237B6473
S21440103010224FF020519348934B98470346002B7D
S21440104040F09A807B6C002B4BD101237B644FF49D
S21440105000118E488E4B984702218E488E4B9847FB
S2144010608E4B9847034619464FF000020B461446EF
S2144010706001F861F86940EAD360F8615B01BB61E2
S214401080D7E906345B1A64EB0204A00078617869FD
S21440109040EA937078619B003B61D7E904345B1863
S2144010A044EB02044FEA840949EA93794FEA8308FD
S2144010B043464C461946224641F22B734FF00004F5
S2144010C0CD1842EB040628463146754C41F22C7248
S2144010D04FF00003A04703460C461846714B98470E
S2144010E04AE000237B644FF4001168486A4B9847F7
S2144010F002216848664B9847684B9847034619460E
S2144011004FF000020B4614466001F860F86840EA6B
S214401110D360F8605B01BB60D7E902345B1A64EBCE
S2144011200204A0007860786840EA937078609B007C
S2144011303B60D7E900345B1844EB02044FEA840B6B
S2144011404BEA937B4FEA830A53465C46194622464F
S21440115041F22B734FF00004CD1842EB04062846AC
S21440116031464F4C41F22C724FF00003A0470346E5
S2144011700C4618464B4B98474FF080424FF0205154
S2144011804948414B98470346002B1BD04FF400314B
S21440119045483F4B98477B6C002B09D14FF40011D4
S2144011A03A483D4B984702213A48394B98473FE7E3
S2144011B04FF400113548364B984702213548364B98
S2144011C0984735E77B6C002B40F060814FF4001168
S2144011D02E48314B984702212E482D4B98470023E6
S2144011E03B644EE1314A3B6C52F82330022293FB7B
S2144011F0F2F37B624FF400112448274B98474FF098
S21440120000034FF00004C7E90E34D9E04FF4003134
S2144012102548214B9847264A3B6C52F82330254AAE
S21440122092FBF3F3002B4BD0214A3B6C52F8233011
S214401230204A92FBF3F31D464FEAE576174B984754
S21440124003464FF0000403FB06F105FB04F20A4494
S214401250A5FB03342244144617494FF000025D189C
S21440126044EB0206284631460D4C144A4FF0000324
S214401270A04703460C4618460A4B984738E000BF3E
S214401280610F4000000E0E408D05400000140E40D9
S2144012907105400000100E40550540004D0F4000BF
S2144012A0251C40000100402000120E403C03402018
S2144012B01000402020A10700DF835A00E0835A0038
S2144012C0A14B9847034619464FF000029F4B4FF0FC
S2144012D00004CD1842EB0406284631469C4C9D4AF5
S2144012E04FF00003A04703460C4618469A4B9847D3
S2144012F04FF4003199489A4B98479A4A3B6C52F8BB
S2144013002330994A92FBF3F3002B2AD0954A3B6C44
S21440131052F82330944A92FBF3F31D464FEAE576A3
S214401320894B984703464FF0000403FB06F105FB44
S21440133004F20A44A5FB03342244144683494FF082
S21440134000025D1844EB020628463146804C814A2E
S2144013504FF00003A04703460C4618467E4B98477E
S21440136017E0794B9847034619464FF00002774BF3
S2144013704FF00004CD1842EB040628463146744C24
S214401380744A4FF00003A04703460C461846724B7B
S214401390984710224FF020517448754B98470346A3
S2144013A0002B02D101237B6415E0724C4FF0000203
S2144013B0714BD7E90E01A04703460C46C7E90E34E9
S2144013C06E4B786A98476E4CD7E90E23A047034683
S2144013D0002B7FF41BAF10224FF020516348644B24
S2144013E098470346002B02D101237B64B8E14FF4B3
S2144013F0001164485A4B98477B6A002B26D07B6A7C
S2144014001D464FEAE576504B984703464FF000049A
S21440141003FB06F105FB04F20A44A5FB0334224411
S214401420144641F22B714FF000025D1844EB020661
S21440143028463146464C41F22C724FF00003A047F6
S21440144003460C461846444B984717E03E4B984791
S214401450034619464FF000023C4B4FF00004CD18AF
S21440146042EB040628463146394C3A4A4FF00003D0
S214401470A04703460C461846374B98473B6C01330B
S2144014803B643B6CCA2B7FF7ADAED1E54FF4001101
S2144014903C48334B984702213B483C4B98470023F7
S2144014A07B6359E13A4A7B6B52F8232013465B0133
S2144014B09B1A9B0013440C2293FBF2F33B620221DF
S2144014C03148324B98474FF000034FF00004C7E9CD
S2144014D00A34E1E04FF4003120482C4B98472D4A1F
S2144014E07B6B52F82330204A92FBF3F3002B53D009
S2144014F0284A7B6B52F823301B4A92FBF3F31D4677
S2144015004FEAE576104B984703464FF0000403FB3E
S21440151006F105FB04F20A44A5FB033422441446B4
S2144015200A494FF000025D1844EB02062846314651
S214401530074C084A4FF00003A04703460C4618469F
S214401540054B984740E000BF4D0F4000DF835A00F0
S214401550251C4000E0835A000100402000120E4047
S214401560710540001000402020A10700000E0E40EC
S2144015708D054000B11740000000F03F491A40007A
S214401580111C400000140E4000100E40550540004F
S214401590A007402068064020724B984703461946ED
S2144015A04FF00002704B4FF00004CD1842EB04069B
S2144015B0284631466D4C6E4A4FF00003A04703461E
S2144015C00C4618466B4B98474FF400316A486B4BB5
S2144015D098476B4A7B6B52F823306A4A92FBF3F388
S2144015E0002B2AD0664A7B6B52F82330654A92FB22
S2144015F0F3F31D464FEAE5765A4B984703464FF0BD
S214401600000403FB06F105FB04F20A44A5FB033481
S2144016102244144654494FF000025D1844EB02063B
S21440162028463146514C524A4FF00003A0470346E5
S2144016300C4618464F4B984717E04A4B9847034688
S21440164019464FF00002484B4FF00004CD1842EBCD
S214401650040628463146454C454A4FF00003A0470D
S21440166003460C461846434B984710224FF02051ED
S2144016704548464B98470346002B02D100237B64DF
S21440168015E0434C4FF00002424BD7E90A01A04711
S21440169003460C46C7E90A343F4B386A98473F4CE6
S2144016A0D7E90A23A0470346002B7FF413AF102246
S2144016B04FF020513448354B98470346002B02D113
S2144016C000237B644CE0022135482C4B98473B6A0C
S2144016D0002B26D03B6A1D464FEAE576214B9847BD
S2144016E003464FF0000403FB06F105FB04F20A44F0
S2144016F0A5FB03342244144641F22B714FF00002FE
S2144017005D1844EB020628463146184C41F22C72CE
S2144017104FF00003A04703460C461846154B984723
S21440172017E0104B9847034619464FF000020E4B01
S2144017304FF00004CD1842EB0406284631460B4CC9
S2144017400B4A4FF00003A04703460C461846094B89
S21440175098477B6B01337B637B6B4D2B7FF7A2AE49
S21440176066E400BF4D0F4000DF835A00251C400052
S214401770E0835A000100402000120E4071054000F0
S2144017806806402020A10700000E0E408D05400050
S214401790B11740000000F03F491A4000111C4000BD
S2144017A000100E4081F0004102E000BF83F000438D
S2144017B030B54FEA41044FEA430594EA050F08BFA7
S2144017C090EA020F1FBF54EA000C55EA020C7FEA6B
S2144017D0645C7FEA655C00F0E2804FEA5454D4EBE8
S2144017E05555B8BF6D420CDD2C4480EA020281EAB2
S2144017F0030382EA000083EA010180EA020281EAEA
S2144018000303362D88BF30BD11F0004F4FEA01313B
S2144018104FF4801C4CEA113102D0404261EB41014A
S21440182013F0004F4FEA03334CEA133302D05242D0
S21440183063EB430394EA050F00F0A780A4F101048C
S214401840D5F1200E0DDB02FA0EFC22FA05F28018C6
S21440185041F1000103FA0EF2801843FA05F35941AC
S2144018600EE0A5F120050EF1200E012A03FA0EFC2B
S21440187028BF4CF0020C43FA05F3C01851EBE37155
S21440188001F0004507D54FF0000EDCF1000C7EEB72
S21440189000006EEB0101B1F5801F1BD3B1F5001FB0
S2144018A00CD349085FEA30004FEA3C0C04F10104CF
S2144018B04FEA445212F5800F80F09A80BCF1004FF8
S2144018C008BF5FEA500C50F1000041EB045141EA7A
S2144018D0050130BD5FEA4C0C404141EB010111F47B
S2144018E0801FA4F10104E9D191F0000F04BF014626
S2144018F00020B1FA81F308BF2033A3F10B03B3F104
S21440190020020CDA0C3208DD02F1140CC2F10C0293
S21440191001FA0CF021FA02F10CE002F11402D8BFF1
S214401920C2F1200C01FA02F120FA0CFCDCBF41EABD
S2144019300C019040E41AA2BF01EB0451294330BD8C
S2144019406FEA04041F3C1CDA0C340EDC04F1140469
S214401950C4F1200220FA04F001FA02F340EA030040
S21440196021FA04F345EA030130BDC4F10C04C4F186
S214401970200220FA02F001FA04F340EA0300294666
S21440198030BD21FA04F0294630BD94F0000F83F4B0
S214401990801306BF81F480110134013D4EE77FEA93
S2144019A0645C18BF7FEA655C29D094EA050F08BFDF
S2144019B090EA020F05D054EA000C04BF19461046C0
S2144019C030BD91EA030F1EBF0021002030BD5FEA04
S2144019D0545C05D14000494128BF41F0004130BD2C
S2144019E014F580043CBF01F5801130BD01F0004580
S2144019F045F0FE4141F470014FF0000030BD7FEAF3
S214401A00645C1ABF194610467FEA655C1CBF0B46ED
S214401A10024650EA013406BF52EA033591EA030F04
S214401A2041F4002130BD00BF90F0000F04BF0021FC
S214401A30704730B54FF4806404F132044FF000052F
S214401A404FF0000150E700BF90F0000F04BF0021A8
S214401A50704730B54FF4806404F1320410F000450E
S214401A6048BF40424FF000013EE700BF42004FEA09
S214401A70E2014FEA31014FEA02701FBF12F07F4386
S214401A8093F07F4F81F06051704792F0000F14BF83
S214401A9093F07F4F704730B54FF4607401F00045C7
S214401AA021F0004120E700BF50EA010208BF70471E
S214401AB030B54FF000050AE050EA010208BF704713
S214401AC030B511F0004502D5404261EB41014FF47C
S214401AD0806404F132045FEA915C3FF4DCAE4FF080
S214401AE003025FEADC0C18BF03325FEADC0C18BF67
S214401AF0033202EBDC02C2F1200300FA03FC20FAB8
S214401B0002F001FA03FE40EA0E0021FA02F1144404
S214401B10C1E600BF4FF0FF3C06E000BF4FF0010CAF
S214401B2002E000BF4FF0010C4DF804CD4FEA410CE7
S214401B307FEA6C5C4FEA430C18BF7FEA6C5C1BD0B4
S214401B4001B050EA410C0CBF52EA430C91EA030F35
S214401B5002BF90EA020F0020704710F1000F91EA92
S214401B60030F58BF994208BF90422CBFD8176FEA60
S214401B70E37040F0010070474FEA410C7FEA6C5C2E
S214401B8002D150EA013C07D14FEA430C7FEA6C5C35
S214401B90D6D152EA033CD3D05DF8040B704700BF61
S214401BA08446104662468C461946634600E000BFAF
S214401BB001B5FFF7B7FF002848BF10F1000F01BD81
S214401BC04DF808EDFFF7F4FF0CBF012000205DF84C
S214401BD008FB00BF4DF808EDFFF7EAFF34BF0120D1
S214401BE000205DF808FB00BF4DF808EDFFF7E0FF6A
S214401BF094BF012000205DF808FB00BF4DF808EDBB
S214401C00FFF7CEFF94BF012000205DF808FB00BF21
S214401C104DF808EDFFF7C4FF34BF012000205DF803
S214401C2008FB00BF53B94AB9002908BF00281CBFAB
S214401C304FF0FF314FF0FF3000F07AB9ADF1080CAD
S214401C406DE904CE00F006F8DDF804E0DDE9022395
S214401C5004B070472DE9F0478C460D460446089E72
S214401C60002B51D18A4217466DD9B2FA82FEBEF198
S214401C70000F0BD0CEF1200C01FA0EF520FA0CFC2A
S214401C8002FA0EF74CEA050C00FA0EF44FEA174A31
S214401C90250CBCFBFAF81FFA87F90AFB18CC45EA74
S214401CA00C4508FB09F3AB420AD9ED1908F1FF329F
S214401CB080F02381AB4240F22081A8F102083D44E7
S214401CC0ED1AA4B2B5FBFAF00AFB105544EA0544F7
S214401CD000FB09F9A14509D9E41900F1FF3380F06A
S214401CE00A81A14540F2078102383C44A4EB09042E
S214401CF040EA08400021002E61D024FA0EF400236A
S214401D0034607360BDE8F0878B4207D9002E54D00C
S214401D10002186E821000846BDE8F087B3FA83F143
S214401D20002940F08E80AB4202D3824200F2FA8015
S214401D30841A65EB03050120AC46002E3FD086E8AA
S214401D401010BDE8F08712B90127B7FBF2F7B7FAD3
S214401D5087FEBEF1000F34D1EB1B3A0C1FFA87FC0E
S214401D600121B3FBF2F8250C02FB183345EA034584
S214401D700CFB08F3AB4207D9ED1908F1FF3002D24D
S214401D80AB4200F2D1808046ED1AA3B2B5FBF2F02A
S214401D9002FB105543EA05440CFB00FCA44507D95A
S214401DA0E41900F1FF3302D2A44500F2B880184689
S214401DB0A4EB0C0440EA08409DE731463046BDE8B7
S214401DC0F087CEF1200405FA0EF307FA0EF720FA54
S214401DD004F83A0C25FA04F448EA0308B4FBF2F196
S214401DE04FEA184502FB11441FFA87FC45EA0445B2
S214401DF001FB0CF3AB4200FA0EF409D9ED1901F1E0
S214401E00FF3080F08A80AB4240F2878002393D4402
S214401E10EB1A1FFA88F5B3FBF2F002FB103345EAE3
S214401E20034500FB0CF3AB4207D9ED1900F1FF3830
S214401E306FD2AB426DD902383D44EB1A40EA0141BD
S214401E408FE7C1F1200722FA07F88B4005FA01F424
S214401E5048EA030320FA07FE4FEA134CFD404EEAD9
S214401E60040EB5FBFCF94FEA1E440CFB19551FFA4D
S214401E7083F844EA054509FB08F4AC4202FA01F24D
S214401E8000FA01FA08D9ED1809F1FF3043D2AC4206
S214401E9041D9A9F102091D442D1B1FFA8EFEB5FB40
S214401EA0FCF00CFB10554EEA054400FB08F8A04534
S214401EB007D9E41800F1FF3529D2A04527D90238C2
S214401EC01C4440EA0940A4EB0804A0FB02894C45A8
S214401ED0C6464D4615D312D056B1BAEB0E0364EB48
S214401EE0050404FA07F7CB401F43CC4037607460C4
S214401EF00021BDE8F0871846F8E69046E0E6C24581
S214401F00EAD2B8EB020E69EB03050138E4E728464F
S214401F10D7E7404691E78146BEE7014678E7023874
S214401F203C4445E7084608E7A8F102083D442BE74D
S214401F30704700BF70B50F4E0F4D761BB61018BFDA
S214401F40002405D0013455F8043B9847A642F9D101
S214401F500A4E0B4D761B00F0A7F8B61018BF0024AB
S214401F6006D0013455F8043B9847A642F9D170BDD7
S214401F7070BD00BFB4204000B4204000BC204000EC
S214401F80B4204000024B13B1024800F005B8704739
S214401F9000000000A51F4000002301461A461846D0
S214401FA000F01EB838B50A4C0A4D641BA4100AD07F
S214401FB004F18043013B05EB8305013C55F80439A9
S214401FC09847002CF9D1BDE8384000F077B800BFFC
S214401FD0CC204000C8204000704700BF704700BF7C
S214401FE02DE9F8432C4D0646286898460F469146FC
S214401FF0FFF7F2FF294B1C68D4F84831002B3ED03F
S2144020005A681F2A1CDC02F1010E76B103EB8201EE
S2144020100124C1F88890D3F8880194402043022ECA
S214402020C3F88801C1F8088123D00232C3F804E01F
S214402030286843F82270FFF7D1FF0020BDE8F883F8
S214402040174B0BB34FF4C870AFF300800346D8B1BC
S214402050D4F848210260002141600A46C4F848018D
S2144020604FF0010EC0F88811C0F88C11002EDCD05D
S214402070CCE7D3F88C110C43C3F88C41D5E704F574
S214402080A673C4F84831BBE72868FFF7A7FF4FF0B0
S214402090FF30BDE8F88300BF000D4020A42040007C
S2144020A000000000D8084020F8B500BFF8BC08BCC7
S2144020B09E467047851F400065014000F8B500BF4A
S2104020C0F8BC08BC9E467047410140003A
S20C4020CC88FBFF7F01000000C5
S2144020D4BFF35F8F0138FBD17047010000093D0014
S2144020E44A01000088010000B8010000B801000061
S2144020F400000000B8010000EE0100000B020000E2
S2144021040B020000000000000B0200004B0200001F
S214402114EE010000EE01000000000000B8010000DF
S21440212488010000B8010000000000004A010000D9
S21440213488010000B8010000B8010000000000005B
S214402144B8010000EE0100000B0200000B02000084
S214402154000000000B0200004B020000EE010000ED
S214402164EE01000000000000B801000088010000F5
S214402174B8010000000000004A0100008801000089
S214402184B8010000B801000000000000B8010000DB
S2144021940B0200004B0200004B020000000000004F
S2144021A44B02000093020000BA020000BA0200008C
S2144021B400000000930200004B020000930200005F
S2144021C4B801000000000000B8010000EE01000065
S2144021D40B0200000B020000000000004B0200004F
S2144021E493020000B801000000000000B80100009F
S2144021F40B020000EE010000EE01000000000000AB
S2144022040B020000B8010000EE01000000000000D0
S214402214B8010000B8010000B8010000EE0100005B
S2144022240B0200000B020000000000000B0200003E
S2144022344B020000EE010000EE010000000000002A
S214402244B801000088010000B8010000000000004A
S2144022544A01000088010000B8010000B8010000EF
S21440226400000000B8010000EE0100000B02000070
S2144022740B020000000000000B0200004B020000AE
S214402284EE010000EE01000000000000B80100006E
S21440229488010000B8010000000000004A01000068
S2144022A488010000B8010000B801000000000000EA
S2144022B4B80100000B0200004B0200004B02000075
S2144022C4000000004B02000093020000BA02000027
S2144022D4BA02000000000000930200004B02000017
S2144022E493020000B801000000000000B80100009E
S2144022F4EE0100000B0200000B020000000000008C
S2144023044B02000093020000B801000000000000E9
S214402314B80100000B020000EE010000EE010000D0
S214402324000000000B020000B8010000EE010000AF
S21440233400000000930200000000000000000000BF
S214402344BA020000000000000000000093020000F3
S214402354930200000000000010030000000000008C
S214402364930200004B020000000000000000000042
S2144023744B02000000000000000000000B020000BA
S2144023840000000000000000EE0100000B02000008
S21440239400000000EE01000000000000B80100004C
S2144023A4930200000000000000000000BA02000093
S2144023B400000000000000009302000093020000AA
S2144023C4000000001003000000000000930200001C
S2144023D44B02000000000000000000004B0200001A
S2144023E400000000000000000B0200000000000097
S2144023F400000000EE0100000B0200000000000098
S214402404EE01000000000000B80100007D0000005E
S2144024147D000000FA0000007D0000007D00000002
S2144024247D0000007D000000FA0000007D000000F2
S2144024347D0000007D0000007D000000FA000000E2
S2144024447D0000007D0000007D0000007D0000004F
S214402454770100007D0000007D0000007D00000044
S214402464FA0000007D0000007D0000007D000000B2
S2144024747D000000FA0000007D0000007D000000A2
S2144024847D0000007D000000FA0000007D00000092
S2144024947D0000007D0000007D0000007701000004
S2144024A47D0000007D0000007D000000FA00000072
S2144024B47D0000007D0000007D0000007D000000DF
S2144024C4FA0000007D0000007D0000007D00000052
S2144024D47D000000FA0000007D0000007D00000042
S2144024E47D0000007D0000007D000000FA00000032
S2144024F47D0000007D0000007D000000FA00000022
S2144025047D0000007D000000FA0000007D00000011
S214402514FA0000007D0000007D0000007D00000001
S214402524FA0000007D0000007D0000007D000000F1
S2144025347D0000007701000077010000FA000000EB
S2144025447D0000007D0000007D000000FA000000D1
S2144025547D0000007D0000007D0000007D0000003E
S214402564FA0000007D0000007D0000007D000000B1
S2144025747D000000770100007D0000007D00000023
S2144025847D000000FA0000007D0000007D00000091
S2144025947D0000007D000000FA0000007D00000081
S2144025A47D0000007D0000007D000000FA00000071
S2144025B47D0000007D0000007D0000007D000000DE
S2144025C4770100007D0000007D0000007D000000D3
S2144025D4FA0000007D0000007D0000007D00000041
S2144025E47D000000FA0000007D0000007D00000031
S2144025F47D0000007D000000FA0000007D00000021
S2144026047D0000007D0000007D0000007D0000008D
S214402614FA0000007D0000007D0000007D00000000
S214402624FA0000007D0000007D000000FA00000073
S2144026347D000000FA0000007D0000007D000000E0
S2144026447D000000FA0000007D0000007D000000D0
S2144026547D0000007D000000770100007701000047
S214402664FA0000007D00000077010000FA00000038
S2144026747D000000770100007D0000007D00000022
S2144026847D0000007D0000007D0000007D0000000D
S2144026947D0000007D00000077010000FA00000085
S2144026A47D00000077010000FA0000007D00000075
S2144026B4770100007D0000007D0000007D000000E2
S2144026C47D0000007D000000F4010000FA000000D8
S2144026D47D00000077010000FA0000007D00000045
S2144026E4770100007D0000007D0000007D000000B2
S2144026F47D0000007D0000007D0000007D0000009D
S2144027047D00000077010000FA0000007D00000014
S21440271477010000FA0000007D0000007701000009
S2144027247D0000007D0000007D0000007D0000006C
S2144027347D000000F40100004D0A00004D0A000030
S214402744000000004D0A0000000000002D080000B4
S2144027544D0A000000000000400C0000000000008D
S21440276400000000000000002006000000000000FA
S21440277400000000000000002D08000000000000DB
S21440278400000000200600000000000000000000DA
S214402794270500000000000000000000E0060000DE
S2144027A400000000B80700000000000049070000D1
S2144027B4E006000000000000200600004D0A00006D
S2144027C4400C0000C00D000000000000EA0A0000B3
S2144027D4400C0000000000004D0A0000000000000D
S2144027E42D0800002D090000B80700000000000076
S2144027F4000000002D08000000000000000000005B
S214402804200600000000000000000000270500002D
S2144028140000000000000000E00600000000000089
S214402824B80700000000000049070000E00600006A
S21440283400000000200600004D0A0000400C000086
S214402844C00D000000000000EA0A0000400C000032
S214402854000000004D0A0000000000002D080000A3
S2144028642D090000B807000000000000000000002A
S2144028740C0000000C0000000C0000000C000000DF
S2144028840C0000000C0000000C0000000C000000CF
S2144028940C0000000C0000000C0000000C000000BF
S2144028A40C0000000C0000000C0000000C000000AF
S2144028B40C0000000C0000000C0000000C0000009F
S2144028C40C0000000C0000000C0000000C0000008F
S2144028D40C0000000C0000000C0000000C0000007F
S2144028E40C0000000C0000000C0000000C0000006F
S2144028F40C0000000C0000000C0000000C0000005F
S2144029040C0000000C0000000C0000000C0000004E
S2144029140C0000000C0000000C0000000C0000003E
S2144029240C0000000C0000000C0000000C0000002E
S2144029340C0000000C0000000C0000000C0000001E
S2144029440C0000000C0000000C0000000C0000000E
S2144029540C0000000C0000000C0000000C000000FE
S2144029640C0000000C0000000C0000000C000000EE
S2144029740C0000000C0000000C0000000C000000DE
S2144029840C0000000C0000000C0000000C000000CE
S2144029940C0000000C0000000C0000000C000000BE
S2144029A40C0000000C00000000000000C40B402097
S2144029B42C0C4020940C4020000000000000000036
S2144029C400000000000000000000000000000000BE
S2144029D400000000000000000000000000000000AE
S2144029E4000000000000000000000000000000009E
S2144029F4000000000000000000000000000000008E
S214402A04000000000000000000000000000000007D
S214402A14000000000000000000000000000000006D
S214402A24000000000000000000000000000000005D
S214402A34000000000000000000000000000000004D
S214402A44000000000000000000000000000000003D
S214402A5401000000000000000E33CDAB34126DE6DA
S214402A64ECDE05000B000000000000000000000043
S214402A74000000000000000000000000000000000D
S214402A8400000000000000000000000000000000FD
S214402A9400000000000000000000000000000000ED
S214402AA400000000000000000000000000000000DD
S208402DD4900D4020B9
S804400C01AE
